:10900000504349746F47534D2062792053656C6516
:109010005465636820205043493247534D20322E17
:109020003220202020203040FE9030406A94304092
:10903000909430406C9430409294304094943040FE
:1090400096943040CC943040F8943040FA943040BC
:10905000FC943040FE943040149730404A973040A2
:1090600076975A4220007AC0F0007AD08000C24A37
:109070002100D2C329000343D2D329003041B012CA
:109080009290B01292903041B0129290B012CC9067
:109090003041F2D010003500F2C235003A420C6C7B
:1090A000042CF2C020003500033CF2D02000350033
:1090B000F2C010003500F2D0100035001A83EF2303
:1090C000F2C010003500F2D235003041F2D010006D
:1090D0003500F2C235000B433A42F2C010003500B1
:1090E000F2D010003500F2B0400034004B6B1A8310
:1090F000F423F2C010003500F2D235003041804335
:10910000407180433E7180433C710F43D043F27005
:10911000D043EF708043BA719040B671B67180430E
:10912000B4719040B071B2718043B0719040AC7135
:10913000AC718043AA719040A671A871904096715D
:10914000967190409A719A713C4000BFB012929013
:109150003C4000F1B01288903C405541B0127E90E6
:109160003C4000C1B01288903C40AA41B0127E90B1
:109170003C4000C1B01288903C400041B0127E904B
:109180003C4000C1B012889032D2B2400C5A20014B
:10919000E2B320003921B0B000FFA670352190B3B2
:1091A000A07026241440327115402A710594042CB5
:1091B00004853492082C1C3C0584344080000485CE
:1091C0003492012C153CF04080002E71C0432B716D
:1091D00080432871804326718043247132C2B0D00D
:1091E00000015E7090C35A70B012629032D20C3D92
:1091F000A0B34E7026241440EA701540E270059426
:10920000042C04853492082C1C3C058434408000D6
:1092100004853492012C153CF0408100DC70C04381
:10922000D9708043D6708043D4708043D27032C2EC
:10923000B0D000020C70A0C30870B012629032D29D
:10924000E33C90B3FE6F3B20144088701540827061
:109250000594052C0485354080000584013C058477
:1092600005932D2435900700032CC093DA6F272037
:10927000364007000596012C0645C0467C708043A9
:109280007A70804378708043767017404670184338
:1092900017533790800001280743D8470003F8028E
:1092A00018531683F52380472A7032C2B0D00004C9
:1092B000906F90D38E6FB012629032D2A53CA0B363
:1092C000826F3E2014401670154010700594052CD6
:1092D0000485354080000584013C058405933024D5
:1092E00035900700032CC0935F6F2A20364007009B
:1092F0000596012C0645C0460070F0D04000FA6F7C
:109300008043F86F8043F66F8043F46F1740CE6F51
:10931000184317533790800001280743D8470004AB
:10932000F80218531683F5238047B26F32C2B0D0CB
:1093300000080E6FA0D30C6FB012629032D2643C62
:10934000B0B01000FC6E2324F0409700AC6FD0400A
:10935000CEFCA76FD040C9FCA26FD040C4FC9D6F6B
:10936000D040BFFC986FD040BAFC936FD040B5FCA2
:109370008E6FD040B0FC896F32C2B0D00010C26E88
:10938000B0C01000BC6EB012629032D23D3CB0B0A2
:109390004000AE6E1824F040B1005E6F0CECF0B0EF
:1093A00010008E6C0C6CF0B2706C0C6CC04C4B6F7F
:1093B00032C2B0D000408A6EB0C04000846EB0129D
:1093C000629032D2213CB0B02000766E1D245C4009
:1093D000216FC04C256F8C10B0128890F040AA000D
:1093E000186FC04B166FC043136F8043106F8043DC
:1093F0000E6F32C2B0D00020486EB0C02000426E66
:10940000B012629032D2003C9090CE6EC86E14249E
:1094100090B3326E11209040BC6EBC6E90D3266E1D
:109420001440B66E145334908000012804438044E5
:10943000A86ED244800377009090A86EA26E142488
:10944000A0B3026E11209040966E966EA0D3F66D7A
:109450001440906E145334908000012804438044DB
:10946000826ED24480047F00903E0013F2D0200030
:1094700031000343F2C020003100C093CA6D0224C2
:10948000D083C46DC093C16D0224D083BB6D001323
:1094900000130013001304120512D2B372005542D8
:1094A0007600112014402A6E145334908000012855
:1094B000044380941E6E0724C44500038044126E4A
:1094C000D0403E6D826D35413441001304129090BE
:1094D000086E046E0D241440006E14533490800006
:1094E000012804438044F26DD24480037700023C9B
:1094F00090C3526D34410013001300130013041283
:109500000512061207120A120B120C120D120E127D
:10951000D2B32300CE24D2C32300044355422000FB
:1095200075C0F000C2452100C2431E00E2C32900FD
:109530000343D4421C00F002E2D32900F2431E0090
:109540007550100014533492ED2BE2C22100E2D288
:10955000210054409C6D454474F0F80075F00700FC
:109560004493132016406E6D1743165336908000B7
:1095700001280643D647F002800317530597F52FBD
:109580008046526D90D3BA6CBB3C7490400013205F
:1095900016404C6D17431653369080000128064341
:1095A000D647F002800417530597F52F8046306D9B
:1095B000A0D38E6CA53C5440386D74F0C0007490FC
:1095C00080005A2054402A6D74F0380044930920DA
:1095D000D0B31E6D032090C36A6C923CA0C3646C30
:1095E0008F3C74921A205540096D75F00300D0B37A
:1095F000006D092C5642180076F0F100455546D50D
:10960000C24619007D3C5642300076F0E3004555D5
:10961000455546D5C2463100733C74901000042075
:10962000B0D010001C6C6C3C749018000B20D0B3B0
:10963000C06C042CD040BB6CC86B623CD040B36C97
:10964000C16B5E3C7490200009205540A56C8510CC
:109650005C40A06C0CD5B0127E90523C74902800F7
:109660000420B0D02000DA6B4B3C749030004820CE
:10967000B0D04000CC6B443C5440766C7490C00039
:109680003F20B240805A200132C2B24000A52C01D6
:10969000B24040A52801B040AA55E679B24000A5E5
:1096A0002801B24010A52C01B2400C5A20011042F2
:1096B000FEFFE2B323002424E2C3230034423540FA
:1096C000F8025642200076C0F000C2462100F24562
:1096D0001D00D2C329000343D2D3290076501000C5
:1096E0001483F32376C0F00076D09000C2462100A8
:1096F000D2C329000343D2D32900B0C000FF426B7C
:109700003E413D413C413B413A4137413641354183
:109710003441001304120512D2B37A0055427E0080
:1097200011201440B66B1453349080000128044378
:109730008094AA6B0724C445000480449E6BD040EB
:10974000C16A056B35413441001304129090946B4B
:10975000906B0D2414408C6B1453349080000128BE
:10976000044380447E6BD24480047F00023CA0C34B
:08977000D46A34410013001318
:10FA0000426F6F742C20312E30300D0AB2400C5AE8
:10FA10002001E2B32000FA235A4220007AC0F0000D
:10FA20007AD08000C24A2100D2C329000343D2D336
:10FA30002900B2400C5A2001E2B32000FA273C42D0
:10FA40003B40F8025A4220007AC0F000C24A21002E
:10FA5000F24B1D00D2C329000343D2D329007A50B0
:10FA600010001C83F3237AC0F0007AD09000C24AC1
:10FA70002100D2C329000343D2D329003041B24030
:10FA80000C5A2001D2B32000FA270B435A4220001F
:10FA90007AC0F000C24A2100C2431E00E2C329001E
:10FAA0000343DB421C00F002E2D32900F2431E00B4
:10FAB0007A5010001B533B92ED2BE2C22100E2D2A0
:10FAC000210030410C437C5A0A9BFD2B30418A4C6B
:10FAD00000002A530A9BFB2B30413C400002B240FD
:10FAE000805A2001B24000A52C01B24040A5280157
:10FAF000BA4B0000B24000A52801B24010A52C016D
:10FB00002A532C83EF23B2400C5A2001304131405C
:10FB10000006B240805A2001B2400C5A2001F24047
:10FB20006000560032C02000F240E4005700E2C3FB
:10FB300002003F40FF001F83FE23E2B30200F723D1
:10FB4000F240C0005800B24002A52A01B24010A500
:10FB50002C01C2432600F240F4002200E2422100C0
:10FB6000F2C003002400F2C003002300F2400300AF
:10FB70002500C2432E00F2400B002A00F2400B0089
:10FB80002900F240F0001B00F240F7001A00C243C7
:10FB90001900C2431F00F2431E00C2431D00C243AE
:10FBA0003300F2402C003200F24020003100C2430A
:10FBB0003700F240BF003600F2423500B24000018B
:10FBC0006001B24010018001B240FF039201B240D7
:10FBD00010008201D2437000F2D010007000F24099
:10FBE00010007100F2401A007400C2437500F24028
:10FBF000ED007300F2D0C0000400D2C37000F2D058
:10FC0000C0000000D2437800F2D010007800F2402B
:10FC100010007900F2401A007C00C2437D00F240DF
:10FC2000ED007B00F2D030000500D2C37800F2D0A6
:10FC300030000100B2400C5A20010443354000025C
:10FC400085440000255335900006FA2325838594CA
:10FC50000000FF2335900002F923B2400C5A200126
:10FC6000B090AA551C1402243040269034400090D5
:10FC7000B240805A2001B24000A52C01B24002A53A
:10FC8000280184430000B24000A52801B24010A51D
:10FC90002C0134500002349000FAED2BB2400C5A83
:10FCA00020013A4000033B4000053C43B012CEFA2D
:10FCB0008043460680434406804342068043400614
:10FCC0000943084335400090F040C0002C06B012B4
:10FCD0000CFAB0127EFAD0401906A605D0401406E0
:10FCE000A105D0400F069C05D0400A069705F0906C
:10FCF000CC00FE050624F040F800FE05B0120CFA18
:10FD0000E83FB0127EFA5440E805474477C0F80057
:10FD100074C007007490D0000624F040F800DA05A3
:10FD2000B0120CFAEE3F1643D846F0020003165309
:10FD30001853195319904A051524389000020F20C2
:10FD40000A453B400003B012DAFA355000023A404F
:10FD500000033B4000053C43B012CEFA084307962F
:10FD6000E32FCF3F0A453B400003B012DAFA3A4096
:10FD7000009005580B45B012C4FA1C9006050724E4
:10FD8000F040F8007405B0120CFA1042FEFFB240C9
:10FD9000805A2001B24000A52C01B24002A52801E2
:10FDA0008043DE12B24000A52801B24010A52C010C
:10FDB000B2400C5A2001F040C8003E05B0120CFAC7
:04FDC0001042FEFFF0
:10FFE2005E905A90569052904E904A90469042900F
:0EFFF2003E903A9036902E9032902A900EFB60
:00000001FF
